:020000040800F2
:10000000B819002089010008211D00089D1A000868
:10001000D11C000845020008A11E000800000000D5
:10002000000000000000000000000000291D000882
:100030005502000800000000251D00082D1D0008C5
:10004000A3010008A3010008A3010008A301000800
:10005000A3010008A3010008A3010008A3010008F0
:10006000A3010008A3010008A3010008A3010008E0
:10007000A301000849020008A3010008A301000829
:10008000A3010008A3010008A3010008A3010008C0
:10009000A3010008A3010008A3010008A3010008B0
:1000A000A3010008A3010008A3010008A3010008A0
:1000B000A3010008A3010008A3010008A301000890
:1000C000A3010008A3010008A3010008A301000880
:1000D000A3010008A3010008A3010008A301000870
:1000E000A3010008A3010008A301000800F002F822
:1000F00000F03AF80AA090E8000C82448344AAF188
:100100000107DA4501D100F02FF8AFF2090EBAE885
:100110000F0013F0010F18BFFB1A43F0010318473B
:100120007822000098220000103A24BF78C878C1D5
:10013000FAD8520724BF30C830C144BF04680C60ED
:10014000704700000023002400250026103A28BF35
:1001500078C1FBD8520728BF30C148BF0B60704739
:100160001FB51FBD10B510BD00F031F81146FFF7E7
:10017000F7FF02F0AFF800F04FF803B4FFF7F2FF1B
:1001800003BC00F057F800000948804709480047C1
:10019000FEE7FEE7FEE7FEE7FEE7FEE7FEE7FEE737
:1001A000FEE7FEE704480549054A064B7047000094
:1001B000311D0008ED000008B80D0020B81900201E
:1001C000B8110020B811002070477047704775467D
:1001D00000F02CF8AE4605006946534620F00700B3
:1001E000854618B020B5FFF7DDFFBDE820404FF091
:1001F00000064FF000074FF000084FF0000BAC4630
:10020000ACE8C009ACE8C009ACE8C009ACE8C0097A
:1002100021F007018D46704710B50446AFF300800A
:100220002046BDE81040FFF7A8BF00000048704717
:100230001800002001491820ABBEFEE7260002008E
:1002400070470000FEE7000040F28400C2F20000A8
:1002500000F078B870470000EFF3108072B600BF6E
:10026000FEE7000070B542F20C060446C4F2020636
:1002700000F0E8FB3168C90718D13068800644BF38
:10028000202030603068C00607D43069C00704D130
:10029000306840075CBF002070BD3068C00623D4C2
:1002A0000020316849072BD434E000BF002C47D030
:1002B0000546601C0ED13068C007DED03068C0072C
:1002C0001CBF30685FEAC070D7D03068C007F2D179
:1002D000D3E700BF00F0B6FB401BA04230D8306827
:1002E000C007F7D1C9E700BF40F21010C2F200000A
:1002F000C16941F00201C16110203168490709D587
:1003000040F21011C2F20001CA6940F0040042F04C
:100310000102CA613169C90702D13060012070BD94
:1003200040F21011C2F20001CA6942F00402CA612F
:10033000316921F0010131613060012070BD00BFE1
:10034000032070BD10B5D0E90FCE0168DCF8003095
:100350000A6823FA0EF35C072AD512F0040427D0AA
:100360000A68920603D40A6822F004020A602F2267
:10037000C4F20202914240F20402C4F202025BDDC6
:100380003023C4F20203994272D04423C4F2020320
:10039000994273D05823C4F20203994240F07A8004
:1003A0004FF480231360C16A002940F098806FE009
:1003B0009C0727D512F0020424D00A68920606D4BE
:1003C0000A6822F00A020A60012280F821202F2206
:1003D000C4F20202914240F20402C4F202023BDD86
:1003E0003023C4F20203994260D04423C4F20203D2
:1003F00099425FD05823C4F20203994260D14FF46E
:10040000003365E01B0743D512F0080208BF10BD9A
:100410000A6822F00E020A60012101FA0EF2CCF8FD
:100420000420816380F82110016B0022002980F8EC
:10043000202054D12CE000BF0823C4F202039942CB
:1004400022D01C23C4F20203994223D1402313601B
:10045000C16A002943D11BE00823C4F20203994278
:100460002CD01C23C4F20203994229D120232FE06F
:100470004FF480631360C16A89BB09E04FF4804385
:100480001360C16A59BB03E004231360C16A31BB26
:1004900010BD00BF02F168044FF08063A14208BFA5
:1004A0004FF480031360C16AC9B9F1E74FF40073D8
:1004B0000EE000BF4FF400530AE000BF022307E044
:1004C00002F168044FF00073A14208BF4FF400131B
:1004D0001360816A0022002980F82020D8D0BDE86E
:1004E00010400847014600284FF0010008BF704740
:1004F0002DE9F043D1F800C04FF6F873CBF6FD7349
:100500004CF6CD426344CCF6CC42A3FB02236FF001
:10051000030707EA93030027C4F2020701F10C095D
:10052000C1E90F730223D1E9012E99E87002D1F8D5
:100530001C8081F82130DCF8003043F6F077BB43B3
:100540001A4342EA0E0222432A43324342EA090294
:1005500042EA0802CCF8002000228A6381F82100D8
:1005600081F820200020BDE8F0437047F0B590F8F6
:1005700020C0BCF1010F32D04FF0010E80F820E016
:1005800090F821C0BCF1010F26D14FF0020C80F889
:1005900021C04FF0000CC0F838C0D0E900C4C56AD3
:1005A000C66BDCF80070102C27F00107CCF8007047
:1005B000006C0EFA00F070600846CCF8043004BFFE
:1005C00010460A46CCF80800CCF80C20DCF80000F5
:1005D00045B140F00E000DE0002180F8201002200F
:1005E000F0BD00BF20F00400CCF80000DCF80000F3
:1005F00040F00A00CCF80000DCF8000040F00100F8
:10060000CCF800000020F0BDB0B5044600F01AFAA6
:10061000054640F20800C2F200000078611C18BFD5
:10062000044400BF00F00EFA401BA042FAD3B0BD54
:100630002DE9F04381B040F21016C2F20006327E7E
:10064000012A03D1022001B0BDE8F0830546012054
:100650002C6830764CF250308846FFF703FE022CAF
:100660001CD100284ED1002042F21004F061C4F2E7
:100670000204206840F004002060206840F0400040
:1006800020604CF25030FFF7EDFD216821F00401AD
:1006900021600021317601B0BDE8F08390BB4FF0BE
:1006A000FF30C8F80000D5E9027007EB80208742D0
:1006B00028D242F21004C4F202044FF0000900BF35
:1006C000C6F81C90206840F0020020606760206837
:1006D00040F0400020604CF25030FFF7C3FD21682D
:1006E00021F00201216098B9D5E9020107F5806780
:1006F00000EB81208742E3D300200021317601B056
:10070000BDE8F08301200021317601B0BDE8F0831F
:10071000C8F800700021317601B0BDE8F083000018
:1007200042F21001C4F20201086840F08002002089
:100730000A6070472DE9F04F81B040F21019C2F203
:100740000009924699F81820012A03D1022001B02D
:10075000BDE8F08F8046012089F818004CF2503037
:100760009B460E46FFF77EFDA0BB404642F21007B7
:10077000B8F1020F18BF0420C4F20207B8F1010F4C
:1007800008BF404645424FF000080024C4F1200154
:10079000C9F81C802AFA04F00BFA01F13A68084300
:1007A000B4F1200158BF2BFA01F042F00101396089
:1007B00026F8020B4CF25030FFF754FD3968013532
:1007C00021F0010248F100013A6018B9002904F152
:1007D0001004DBD0002189F8181001B0BDE8F08FBB
:1007E00042F20400C4F20200C16809065CBF0020A6
:1007F000704740F22311C4F26751016048F6AB1113
:10080000CCF6EF510160C068C0B2C009704700006B
:100810002DE9F04F82B00E68002E00F0038141F206
:100820000042C4F20102042340F2004E904208BF8D
:1008300003234FF6FF7CC4F2010E00930024012332
:10084000C1F2100C4FF0000A4FF0000949E000BF60
:10085000012704F00C030F229A402BEA020207FA48
:1008600003F34FEA9A051A4346F82520D1F804B05D
:1008700040F20C455FEACB22DEF8082054BF22EAA2
:10088000080242EA0802C4F20105CEF808202A68EC
:100890005FEA8B2354BF22EA080242EA08022A6078
:1008A0005FEA8B33DEF8042054BF22EA080242EAF2
:1008B00008025FEACB33CEF80420DEF800204FF0C8
:1008C000010354BF22EA080242EA0802CEF80020DF
:1008D0000E680AF1010A36FA0AF204F1040400F083
:1008E000A18003FA0AF816EA080FF1D04E686645AF
:1008F00012DC122E56D8DFE806F0350B4549555567
:1009000055555555555555555555554D510000BFE3
:10091000D1F80C9046E000BF4FF6FF72C1F2210201
:1009200096420FDC0022C1F2110296421AD0002238
:10093000C1F21202964215D00022C1F22102964263
:1009400010D02FE00022C1F2220296420AD00022EB
:10095000C1F23102964205D00022C1F23202964223
:1009600020D100BF8A684AB1012A14BFC0F81480A0
:10097000C0F810804FF0080914E000BF4FF00409E0
:1009800010E000BFCA6802F108090BE04FF000094F
:1009900008E000BFCA6802F1040903E0CA6802F176
:1009A0000C0900BF22460646BAF1080F24BF203AC0
:1009B000043637680F25954027EA050509FA02F243
:1009C0002A433260CA79D2067FF582AF41F218031A
:1009D000C4F202031A68AEF57E7642F001021A6094
:1009E0001A6802F001020192019A2AF0030256F8F5
:1009F00002B040F60002C4F20102904210D040F66C
:100A00000042C4F2010290423FF422AF41F20002E0
:100A1000C4F20102009F904208BF022719E700BFFD
:100A2000002716E702B0BDE8F08F0000806808409C
:100A300018BF012070470000002A08BF09040161A7
:100A40007047000040F6B050C2F2000000687047E6
:100A500040F2080040F6B051C2F20000C2F20001BC
:100A600000780A68104408607047000080B542F2C0
:100A70000000C4F20200016841F01001016003208F
:100A800000F08EF80F2000F005F800F027F80020A5
:100A900080BD000070B540F20806C2F2000640F2C8
:100AA00010013278C2F200014FF47A730968B3FB87
:100AB000F2F20446B1FBF2F1084600F043FB0F2CC2
:100AC0004FF0010508D838B94FF0FF302146002219
:100AD000002500F039F87460284670BD82B041F2FC
:100AE0001800C4F202000168022241F00101016015
:100AF000016801F0010101910199416841F08051C3
:100B00004160406800F08050009000980420C4F2DA
:100B10000100016862F31A61016002B070470000D1
:100B2000002848BF7047C1B200F01F00012202FA3E
:100B300000F04EF20012CEF2000242EAD10121F0A2
:100B4000030108607047000010B54EF60C5CCEF251
:100B5000000CDCF80030C3F3022E8EF00704042CE6
:100B600028BF0424BEF103034FF0FF3E0EFA04F445
:100B700038BF0023A14399400EFA03F39A4311436F
:100B800000F00F0200F160430901043A03F56443E9
:100B90006244002848BF02F10C03197010BD000028
:100BA0004EF60C51CEF200010A684FF6FF031A40D0
:100BB00060F30A2242F0806040F0FD7008607047E8
:100BC0002DE9F04381B0002800F0878042F2000850
:100BD000C4F202080446D8F800000D4600F00700F1
:100BE00088420CD2D8F8000020F007002843C8F84B
:100BF0000000D8F8000000F00700A8426DD120687E
:100C000041F204098107C4F2020917D5410705D54D
:100C1000D9F8001041F4E061C9F80010010705D5CA
:100C2000D9F8001041F46051C9F80010D9F800104B
:100C3000A26821F0F0011143C9F80010C00743D1A8
:100C4000D8F8000000F00700A8420CD9D8F800003E
:100C500020F007002843C8F80000D8F8000000F092
:100C60000700A84239D12068410707D5D9F80010FC
:100C7000E26821F4E0611143C9F80010000708D5CB
:100C8000D9F80000216920F4605040EAC100C9F899
:100C90000000D9F8001041F6003001F00C02042ADF
:100CA000C0F2B70058D0082A44D142F28633C1F3CB
:100CB0008342C0F600039A5CC90341D440F6001099
:100CC000C0F23D00504347E0606802280AD0012886
:100CD0002AD159F8041C890308D4012001B0BDE8C9
:100CE000F08300BF59F8041C8901F6D5D9F800102B
:100CF00021F003010843C9F80000FFF7A3FE0646F0
:100D000041F28837D9F80000616800F00C00B0EBC0
:100D1000810F95D0FFF796FE801BB842F2D90320D1
:100D200001B0BDE8F08300BF59F8041C8907D4D591
:100D3000DCE700BF41F20020C0F27A000CE000BF07
:100D4000D9F8001042F28433C1F34041C0F60003E9
:100D5000595C5043B0FBF1F0D9F8001042F2743204
:100D6000C1F30311C0F60002515C40F2100220FAF8
:100D700001F140F20C00C2F200000068C2F2000271
:100D80001160FFF787FE002001B0BDE8F08300008E
:100D90002DE9F04182B0002868D00446007841F285
:100DA0000006C007C4F2020625D0706800F00C00EF
:100DB00004281BD0706800F00C00082802D170686D
:100DC000C00313D46068002800F06881B0F5A02F3C
:100DD00000F07C81B0F5803F00F07C81306820F429
:100DE00080303060306820F4802076E13068800305
:100DF00001D56068D0B32078800718D5706810F0EE
:100E00000C0F07D0706800F00C0008286ED17068D5
:100E1000C0036BD43068800702D52069012825D132
:100E20003068616920F0F80040EAC1003060207845
:100E300000071FD42078400732D4E56995B1706867
:100E400000F00C00082840F08F80012D0ED0706853
:100E5000216A00F480328A4208D1616A00F470107D
:100E6000884203D1002002B0BDE8F081012002B029
:100E7000BDE8F081A069002862D00020C4F24220C1
:100E80000121C0F88014FFF7DDFD0546706A800778
:100E900000F18C80FFF7D6FD401B0228F6D92AE12D
:100EA000F06910F0805808D1F06940F08050F0618E
:100EB000F06900F080500090009847F20007C4F2FB
:100EC00000073868C00529D4386840F4807038605D
:100ED000FFF7B8FD054600BF3868C0051ED4FFF710
:100EE000B1FD401B6428F7D905E100BF2069002847
:100EF00040F20000C4F2422000F082800121016033
:100F0000FFF7A0FD054600BF306880073FF588AFBA
:100F1000FFF798FD401B0228F6D9ECE0E0680028B6
:100F200000F08080052800F09780012800F098806C
:100F3000306A20F001003062306A20F0040092E054
:100F40000020C4F242200021C0F88014FFF77AFD8F
:100F5000054600BF706A80077FF56CAFFFF772FD32
:100F6000401B0228F6D9C6E00027C4F24227002021
:100F70003866FFF767FD022D05460BD1306880010A
:100F800040F1BE80FFF75EFD401B02284FF00300DA
:100F9000F4D968E7306880017FF564AFFFF752FD50
:100FA000401B02284FF00300F4D95CE740F2100028
:100FB000C2F20000006844F6D351C1F26201A0FB06
:100FC0000101480A019000BF00BF0198411E00289E
:100FD00001913FF42FAF00BF0198411E00280191FD
:100FE0003FF428AF00BF0198411E002801913FF453
:100FF00021AF00BF0198411E00280191E4D119E7FB
:1010000000210160FFF71EFD054600BF3068800724
:101010007FF50DAFFFF716FD401B02284FF00300D0
:10102000F4D920E7306A20F001003062306A20F005
:1010300004003062FFF706FD054641F2883700BF25
:10104000306A800720D5FFF7FDFC401BB8424FF007
:101050000300F5D907E700BF306A40F004003062B2
:10106000306A40F001003062FFF7ECFC054641F2C7
:10107000883700BF306A800706D4FFF7E3FC401BC7
:10108000B842F7D937E000BFB8F1000F7FF4D5AE12
:10109000F06920F08050F061CFE600BF306820F4A6
:1010A00080303060306820F480203060FFF7CAFC68
:1010B000054600BF306880037FF59DAEFFF7C2FC98
:1010C000401B64284FF00300F4D9CCE6306840F4AC
:1010D00080203060306840F480303060FFF7B2FC30
:1010E000054600BF306880033FF585AEFFF7AAFCD8
:1010F000401B6428F6D9032002B0BDE8F08100BF90
:10110000206AB0F5803F05D17168A26821F40031F2
:10111000114371607168626A21F4741111430843CC
:10112000706001203866FFF78DFC0446306880014E
:101130003FF598AEFFF786FC001B02284FF0030036
:10114000F4D990E6411E0020B0EB116F1CBF0120C6
:1011500070474EF21002CEF2000251604EF623515B
:10116000CEF20001F0230B700721906011607047F0
:10117000B0B590F83C20012A04BF0220B0BD01F1B7
:1011800008053CCDD1E900CE23F47C5322F4705203
:101190001A432EF4F0431A432CF4E0431A4324F488
:1011A000C0431A432A43C96922F4804203681143A9
:1011B0005964002180F83C100846B0BD10B590F885
:1011C0003C20012A4FF0020233D080F83D20026813
:1011D000D2F804E0D2F808C00C682EF07003234364
:1011E00040F2FF74C4F20004A24253600ADCB2F180
:1011F000804F13D040F20043C4F200039A420DD056
:1012000011E000BF42F60043C4F201039A4205D048
:1012100040F60003C4F200039A4204D149682CF05E
:101220008003194391600121002280F83D1080F86D
:101230003C20104610BD0000002804BF012070476C
:1012400010B5044690F83D0028B9002084F83C0011
:10125000204600F06FF8022084F83D00206840F23C
:10126000FF730268C4F2000342F6004C9842C4F2D5
:10127000010C15DCB0F1804F1AD040F20041C4F2ED
:101280000001884214D0984218DCB0F1804F1DD084
:1012900040F20041C4F20001884217D01AE000BFBA
:1012A000604505D040F60001C4F200018842EAD151
:1012B000A16822F070020A439842E6DD604505D03D
:1012C00040F60001C4F20001884203D1216922F4F2
:1012D00040720A43A36922F08001D4F804E0E26876
:1012E000194360450160C262C0F828E002D161691B
:1012F000CCF83010012141610269D20703D00269A4
:1013000022F001020261002084F8461084F83E10A9
:1013100084F83F1084F8401084F8411084F842109B
:1013200084F8431084F8441084F8451084F83D1084
:1013300010BD0000B0B582B00446006842F600411E
:10134000C4F20101884201D002B0B0BD41F21800E0
:10135000C4F20200016840F2840541F400610160BA
:101360000068C2F2000500F400600190019830208E
:10137000C4F202001021002280234FF4807C4FF43D
:10138000806E85E80F502846C5E90622FFF7AAF8C7
:10139000002818BFFEF760FFA5626C6202B0B0BD06
:1013A00080B590F83C20012A4FF0020200F0C28084
:1013B00080F83D20D0F800C04FF67772DCF8083096
:1013C00023EA0202CCF808200B684F2B28DC1F2BE5
:1013D00044DD202B45D0302B43D0402B40F0AC8057
:1013E000D1F804E0C968DCF82030DCF8202022F0D5
:1013F0000102CCF82020DCF8182022F0F00242EAAA
:10140000011123F00A0242EA0E02CCF81810CCF8BF
:101410002020DCF8081041F0470121F0300180E085
:101420006F2B27DDB3F5005F48D0B3F5805F7AD02E
:10143000702B40F08180D1E901E3C968DCF8082015
:1014400043EA0E0322F47F4243EA01211143CCF820
:101450000810DCF8081041F0770162E00BB1102BA6
:101460006AD1DCF8081021F07001194341F007013E
:1014700057E000BF502B35D0602B5DD1D1F804E090
:10148000C968DCF82030DCF8202022F01002CCF80B
:101490002020DCF8182022F4704242EA013123F0C7
:1014A000A00242EA0E12CCF81810CCF82020DCF88A
:1014B000081041F0670121F0100132E0D1E901E3A9
:1014C000C968DCF8082043EA0E0322F47F4243EAAD
:1014D00001211143CCF80810DCF8081041F48041D8
:1014E0001FE000BFD1F804E0C968DCF82030DCF868
:1014F000202022F00102CCF82020DCF8182022F075
:10150000F00242EA011123F00A0242EA0E02CCF88C
:101510001810CCF82020DCF8081041F0570121F019
:101520002001CCF808100022012180F83D10002194
:1015300080F83C10104680BD0122F5E7704700009E
:101540002DE9F04390F83C30012B04BF0220BDE8A8
:10155000F0834FEAB202032A3CD8DFE802F00343EB
:1015600081BD00BF036842F600461D6A1A6AC4F2D4
:10157000010622F001021A621A465C6852F818CF7E
:10158000B3428E68D1F800E025F0020545EA060571
:101590000CD1CE68D1E9057824F4407425F00C050F
:1015A00026F004063C43354344EA08042CF0730754
:1015B00047EA0E075C609F614F6809695F631D62BF
:1015C0009F6947F008079F619F6927F004079F61A3
:1015D000B2E000BF0121002280F83C200846BDE8AF
:1015E000F08300BF036842F600461D6A1A6AC4F21F
:1015F000010622F010021A621A46D3F804C052F80B
:10160000184FB3428E68D1F800E025F0200545EA76
:10161000061510D1CE68D1E9058725F0C0096FF015
:10162000400505EA06152CF4406647EA080745EA36
:10163000090546EA870C24F4E64444EA0E27C3F879
:1016400004C09F614F6809699F631D629F6947F4E9
:1016500000679F619F6927F480679F616BE000BF0F
:10166000036842F600461D6A1A6AC4F2010622F4B3
:1016700080721A621A46D3F804C052F81CEFB342C3
:101680008E680C6825F4007545EA062511D1CE68F0
:10169000D1E9058725F44069360240F2FF4526EA84
:1016A00005052CF4405647EA080745EA090546EACD
:1016B000071C2EF073072743C3F804C0DF614F688F
:1016C0000969DF631D62DF6947F00807DF61DF69D1
:1016D00027F00407DF612FE0036842F60047D3F8E4
:1016E00020C01A6AC4F2010722F480521A621A4614
:1016F0005C6852F81C5FD1F800E08E68BB4204D1F0
:101700004F6924F4804444EA87142CF4005747EAD4
:10171000063725F4E64646EA0E265C60DE614E6832
:1017200009691E641F62DF6947F40067DF61DF69D2
:1017300027F48067DF6109021368194311600021F3
:10174000002280F83C200846BDE8F083002804BF52
:101750000120704710B5044690F83D0028B90020DC
:1017600084F83C00204600F06FF8022084F83D0029
:10177000206840F2FF730268C4F2000342F6004C96
:101780009842C4F2010C15DCB0F1804F1AD040F23F
:101790000041C4F20001884214D0984218DCB0F134
:1017A000804F1DD040F20041C4F20001884217D0A2
:1017B0001AE000BF604505D040F60001C4F2000108
:1017C0008842EAD1A16822F070020A439842E6DD1D
:1017D000604505D040F60001C4F20001884203D103
:1017E000216922F440720A43A36922F08001D4F8EF
:1017F00004E0E268194360450160C262C0F828E075
:1018000002D16169CCF83010012141610269D2072F
:1018100003D0026922F001020261002084F8461020
:1018200084F83E1084F83F1084F8401084F841108A
:1018300084F8421084F8431084F8441084F845106A
:1018400084F83D1010BD0000704700007047000094
:1018500070470000B0B50C46054649B1082C15D0BC
:10186000042C14BF05F1410005F13F0010E000BF5A
:1018700095F83E00022804BF0220B0BD05F13E00ED
:101880000078012840F0C4801AE000BF05F1400054
:101890000078022804BF0220B0BD082C0AD0042C16
:1018A00014BF05F1410005F13F000078012840F028
:1018B000AF8005E005F140000078012840F0A880E5
:1018C000002A4FF0010018BF002B01D1B0BD00BFAE
:1018D00002206CB1082C13D0042C14BF85F84100F1
:1018E00085F83F004FEAB400032810D990E000BF0C
:1018F00085F83E004FEAB400032808D988E000BF0D
:1019000085F840004FEAB400032800F28180DFE848
:1019100000F00323436300BF686A41F69D51C0F69F
:1019200000018162686A41F60961C0F60001C16286
:10193000686A41F64161D5F800C0C0F60001016354
:10194000686A0CF1340C11466246FEF70FFE00285F
:101950005ED14FF400715FE0A86A41F69D51C0F678
:1019600000018162A86A41F60961C0F60001C16206
:10197000A86A41F64161D5F800C0C0F600010163D4
:10198000A86A0CF1380C11466246FEF7EFFD0028FC
:101990003ED14FF480613FE0E86A41F69D51C0F6C8
:1019A00000018162E86A41F60961C0F60001C16286
:1019B000E86A41F64161D5F800C0C0F60001016354
:1019C000E86A0CF13C0C11466246FEF7CFFDF8B90F
:1019D0004FF4006120E000BF286B41F69D51C0F636
:1019E00000018162286B41F60961C0F60001C16205
:1019F000286B41F64161D5F800C0C0F600010163D3
:101A0000286B0CF1400C11466246FEF7AFFD08B1A1
:101A10000120B0BD4FF480512868C2681143C160F5
:101A200004F01F010122036A8A4023EA02010162D5
:101A3000036A42F64441C4F201011A43A1F144038E
:101A40009842026203D10A6842F400420A6040F2FE
:101A5000FF71C4F20001884206DCB0F1804F0FD064
:101A600040F2004108E000BF42F60041C4F201012B
:101A7000884205D040F60001C4F20001884206D138
:101A8000816801F00701062904BF0020B0BD01688C
:101A900041F0010101600020B0BD0000FEE7000040
:101AA00080B582B041F21400C4F202000168002245
:101AB00041F0010101600068002100F00100019087
:101AC00001980D20FFF740F80D2002B0BDE88040DE
:101AD000FFF726B82DE9F04784B041F21800C4F2B0
:101AE0000200016840F6004A41F0100101600168FF
:101AF000C4F2010A01F010010091009901680AF591
:101B0000806541F0200101600168002201F02001A0
:101B10000091009901684FF4005641F008010160FE
:101B200001684FF0000901F0080100910099016877
:101B300041F00401016000684FF4005100F004001E
:101B4000009000982846FEF777FF504604210122B6
:101B50004FF004080127FEF76FFF8DE8C0026E46C4
:101B60000224284631460394FEF752FE5046314681
:101B7000CDE90087CDE90294FEF74AFE2020CDE9A9
:101B80000009504631460297FEF742FE04B0BDE818
:101B9000F087000070B59CB042F6004540F2C800E6
:101BA000C4F201050021C2F20000592280231691DF
:101BB000CDE914111191CDE90F11CDE90D11CDE948
:101BC0000B11CDE90911CDE90711CDE90511CDE9D9
:101BD0000311CDE90111C0E90051C0E90212C0E9C9
:101BE00004118361FFF728FB002818BFFEF734FBC0
:101BF0004FF48050139040F2C800C2F2000013A9C5
:101C0000FFF7CEFB002818BFFEF726FB40F2C80006
:101C1000C2F20000FFF79AFD002818BFFEF71CFB78
:101C200040F2C8000024C2F2000010A9CDE910441F
:101C3000FFF7C4FA002818BFFEF70EFB6020CDE9BD
:101C4000090440F2C800C2F2000009A90422CDE94B
:101C50000B44CDE90D440F94FFF772FC002818BF28
:101C6000FEF7FAFA40F2C8044FF40050C2F2000442
:101C70000026069001A920460596CDE90366CDE928
:101C800001660896FFF774FA002818BFFEF7E4FA19
:101C900020681A96A84201D01CB070BD41F218000D
:101CA000C4F20200016841F004010160006818A953
:101CB00000F00400179017984FF40070189002205D
:101CC00019901B90A5F51050FEF7A2FD1CB070BD39
:101CD000FEE70000013803280AD8DFE800F0030B14
:101CE000131900BFB4200021002200F0DBB800BFB0
:101CF00000F004BA40F28000C2F20000012101703D
:101D0000704700BF00200021B42200F0CBB800BF14
:101D100040F28000C2F20000022101707047000012
:101D2000FEE700007047000070470000FEF790BE1D
:101D3000704700004FF60040C0F601000068704791
:101D400070B586B04FF60044C0F6010440F600407E
:101D50002668C4F201002021FEF768FE0138B0FABF
:101D600080F04509701C18BF3544042D88BF00253C
:101D7000FEF736FD0020CDE901000120059002A804
:101D800001A90494FEF754FC022021462A460023B0
:101D9000FEF7D0FCFEF7C4FC06B070BD10B5446A77
:101DA000616A814212D0A16A814217D0E16A814200
:101DB0001CD0216B814220D1806908210028217725
:101DC00004BF012084F8410017E000BF81690120B1
:101DD0000029207708BF84F83E000EE080690221C8
:101DE000217750B9012084F83F0006E08069042182
:101DF000217710B9012084F840002046FFF726FD26
:101E00000020207710BD000010B5446A616A81424D
:101E10000AD0A16A814209D0E16A814208D0216BCF
:101E2000814207D1082004E0012002E0022000E006
:101E3000042020772046FFF70BFD0020207710BDFF
:101E400010B5446A616A81420CD0A16A81420FD008
:101E5000E16A814212D0216B814215D0012084F8C1
:101E60003D0016E00120207784F83E0011E000BF1D
:101E700002202077012084F83F000AE00420207728
:101E8000012084F8400004E008202077012084F835
:101E900041002046FFF752FB0020207710BD0000D4
:101EA000FEE70000F0B581B040F2780714460D4619
:101EB0000646C2F200070020788000BF80B231469B
:101EC0002A46234600F05EF97888013081B23C2929
:101ED0007880F3D340F2C80040F23012C2F2000022
:101EE000C2F2000204214FF4C86301B0BDE8F04023
:101EF000FFF7B0BC002808BF70472DE9F04F81B054
:101F000040F278080228C2F2000869D0012840F0A7
:101F1000D88098F9003040F200000027C2F200009B
:101F2000D9074FF03C0EA8F80270406808BF4FF088
:101F30001E0E99074FF03C0958BF4FF01E09590774
:101F40004FF03C0A58BF4FF01E0A19074FF03C0BE8
:101F500058BF4FF01E0BD9064FF03C0658BF1E2647
:101F600099064FF03C0158BF1E215A064FF03C0223
:101F70004FF03C0C58BF1E22B3F1FF3F4FF01E0341
:101F80004FF01E14C8BF4FF01E0C00BF07EB4707F1
:101F9000FF00BFB200EB4705EB81A5F81EE0A5F8F6
:101FA0001C90EC62C5F80A40A5F81AA0A5F818B074
:101FB000AC62C5F80640EE82A9826C62C5F80240A8
:101FC0006A8220F81730A5F810C02C62B8F80250C9
:101FD0006F1CBDB23C2DA8F80270D7D364E000BFDF
:101FE00098F9003040F200000027C2F20000D90743
:101FF0004FF03C0EA8F80270406808BF4FF01E0E6C
:1020000099074FF03C0958BF4FF01E0959074FF090
:102010003C0A58BF4FF01E0A19074FF03C0B58BF3F
:102020004FF01E0BD9064FF03C0658BF1E269906EE
:102030004FF03C0158BF1E215A064FF03C024FF0B2
:102040003C0C58BF1E22B3F1FF3F4FF01E034FF070
:102050001E14C8BF4FF01E0C07EB4707FF00BFB2AE
:1020600000EB4705EB81A5F82EE0EC61A5F82C907C
:10207000C5F80A40A5F82AA0AC61A5F828B0C5F8B3
:102080000640EE846C61A984C5F802406A8420F899
:1020900017302C61A5F820C0B8F802506F1CBDB2F3
:1020A0003C2DA8F80270D7D340F2C80040F230129D
:1020B000C2F20000C2F2000204214FF4C863FFF72D
:1020C000C9FB98F8000040F20001C2F2000128B1FB
:1020D000B32807D9FF220A70FD2106E001220A7009
:1020E000032102E0097801EB41010144642088F8F2
:1020F000001001B0BDE8F04FFEF786BA80B540F29F
:102100000000C2F20000D0F804E040F27801C2F210
:10211000000100234FF01E0C4B8000BF9BB22EF835
:1021200013C04B885A1C93B258092C284A801AD8DD
:102130002EF813C04888013083B25A092C2A4880EF
:1021400011D82EF813C04888013083B25A092C2ABE
:10215000488008D82EF813C04888431C98B2B0F5C0
:10216000B46F4B80DAD340F2C80040F23012C2F2B2
:102170000000C2F2000204214FF4C863BDE88040B1
:10218000FFF768BB2DE9F04140F20007C2F20007FB
:102190007D68D7074FF03C0400EB400708BF1E24C2
:1021A00005EB0710C481CC074FF03C0408BF1E2488
:1021B000C483DC074FF03C0408BF1E24C485940789
:1021C0004FF03C0458BF1E2484818C074FF03C0420
:1021D00058BF1E2484839C074FF03C0458BF1E2424
:1021E000848554074FF03C0458BF1E2444814C079B
:1021F0004FF03C0458BF1E2444835C074FF03C045E
:1022000058BF1E24448514074FF03C0458BF1E24B9
:1022100004810C074FF03C0458BF1E2404831C07A4
:102220004FF03C0458BF1E240485D4064FF03C04F4
:1022300058BF1E24C480CC064FF03C0458BF1E2457
:10224000C482DC064FF03C0458BF1E24C4849406AC
:102250004FF03C0458BF1E2484808C064FF03C0491
:1022600058BF1E2484829C064FF03C0456B258BFCF
:102270001E2452064FF03C024FFA81F8848458BF66
:102280001E2249064FF03C01428058BF1E21418268
:1022900059064FF03C0158BF1E2141843C21B6F144
:1022A000FF3FC8BF1E213A014FFA83FC4FF03C0E9E
:1022B000A952B8F1FF3F4FF03C01C8BF1E21018277
:1022C000BCF1FF3FC8BF4FF01E0EA0F820E0BDE8F4
:1022D000F081000090B0FEF7C9FB00240120CDE999
:1022E0000B44CDE9094406900A904FF480104FF456
:1022F000803102250F9006A8CDE90714CDE90D51D4
:10230000FEF746FD20B1EFF3108072B6FEE700BF86
:102310000F20CDE901054FF48060CDE9040401A848
:1023200002210394FEF74CFC20B1EFF3108072B64B
:10233000FEE700BFFFF7CEFBFFF7B2FBFFF72AFC7B
:10234000FFF7DCFE4FF49670FEF75EF9FFF7F8FC3E
:10235000FFF7F0FC40F27C01C2F200010860FFF7D9
:10236000B9FC40F28004C2F2000400BF2078FFF7FD
:10237000C1FDFBE7000000000000000001020304B3
:1023800006070809010202030405060708090A0BEB
:102390000C0D0E0F10100000B823000800000020E4
:1023A0001800000028010008D023000818000020B1
:1023B000A01900004401000801000000D001002025
:1023C000010000001000000000127A000000000070
:04000005080000ED02
:00000001FF
